{
  "contractName": "SendABox",
  "abi": [
    {
      "constant": true,
      "inputs": [],
      "name": "SZABO_PER_WEI",
      "outputs": [
        {
          "name": "",
          "type": "uint256"
        }
      ],
      "payable": false,
      "stateMutability": "view",
      "type": "function"
    },
    {
      "constant": true,
      "inputs": [
        {
          "name": "",
          "type": "uint256"
        }
      ],
      "name": "boxlist",
      "outputs": [
        {
          "name": "",
          "type": "uint256"
        }
      ],
      "payable": false,
      "stateMutability": "view",
      "type": "function"
    },
    {
      "constant": true,
      "inputs": [
        {
          "name": "",
          "type": "uint256"
        }
      ],
      "name": "ABoxList",
      "outputs": [
        {
          "name": "donator",
          "type": "address"
        },
        {
          "name": "value",
          "type": "uint256"
        }
      ],
      "payable": false,
      "stateMutability": "view",
      "type": "function"
    },
    {
      "constant": true,
      "inputs": [],
      "name": "owner",
      "outputs": [
        {
          "name": "",
          "type": "address"
        }
      ],
      "payable": false,
      "stateMutability": "view",
      "type": "function"
    },
    {
      "constant": true,
      "inputs": [],
      "name": "token",
      "outputs": [
        {
          "name": "",
          "type": "address"
        }
      ],
      "payable": false,
      "stateMutability": "view",
      "type": "function"
    },
    {
      "inputs": [
        {
          "name": "_token",
          "type": "address"
        }
      ],
      "payable": false,
      "stateMutability": "nonpayable",
      "type": "constructor"
    },
    {
      "payable": true,
      "stateMutability": "payable",
      "type": "fallback"
    },
    {
      "anonymous": false,
      "inputs": [
        {
          "indexed": false,
          "name": "_box_idx",
          "type": "uint256"
        },
        {
          "indexed": true,
          "name": "_sender",
          "type": "address"
        },
        {
          "indexed": false,
          "name": "_message",
          "type": "string"
        },
        {
          "indexed": false,
          "name": "_value",
          "type": "uint256"
        },
        {
          "indexed": false,
          "name": "_token",
          "type": "uint256"
        }
      ],
      "name": "ev_GiveABoxFromDonator",
      "type": "event"
    },
    {
      "anonymous": false,
      "inputs": [
        {
          "indexed": true,
          "name": "_getter",
          "type": "address"
        },
        {
          "indexed": false,
          "name": "_boxid",
          "type": "uint256"
        },
        {
          "indexed": false,
          "name": "_value",
          "type": "uint256"
        },
        {
          "indexed": false,
          "name": "_takevalue",
          "type": "uint256"
        }
      ],
      "name": "ev_GetABox",
      "type": "event"
    },
    {
      "constant": false,
      "inputs": [
        {
          "name": "_num",
          "type": "uint256"
        },
        {
          "name": "_value",
          "type": "uint256"
        }
      ],
      "name": "setcanGiveValue",
      "outputs": [
        {
          "name": "",
          "type": "bool"
        }
      ],
      "payable": false,
      "stateMutability": "nonpayable",
      "type": "function"
    },
    {
      "constant": false,
      "inputs": [
        {
          "name": "_num",
          "type": "uint256"
        }
      ],
      "name": "getcanGiveValue",
      "outputs": [
        {
          "name": "",
          "type": "uint256"
        }
      ],
      "payable": false,
      "stateMutability": "nonpayable",
      "type": "function"
    },
    {
      "constant": false,
      "inputs": [],
      "name": "getboxlistarray",
      "outputs": [
        {
          "name": "",
          "type": "uint256[]"
        }
      ],
      "payable": false,
      "stateMutability": "nonpayable",
      "type": "function"
    },
    {
      "constant": false,
      "inputs": [],
      "name": "GetAlBox",
      "outputs": [
        {
          "name": "",
          "type": "bool"
        }
      ],
      "payable": false,
      "stateMutability": "nonpayable",
      "type": "function"
    },
    {
      "constant": false,
      "inputs": [
        {
          "name": "message",
          "type": "string"
        }
      ],
      "name": "giveABoxForMessage",
      "outputs": [],
      "payable": true,
      "stateMutability": "payable",
      "type": "function"
    },
    {
      "constant": false,
      "inputs": [
        {
          "name": "_from",
          "type": "address"
        },
        {
          "name": "message",
          "type": "string"
        }
      ],
      "name": "giveABox",
      "outputs": [],
      "payable": true,
      "stateMutability": "payable",
      "type": "function"
    },
    {
      "constant": false,
      "inputs": [
        {
          "name": "_getaddress",
          "type": "address"
        },
        {
          "name": "_boxid",
          "type": "uint256"
        },
        {
          "name": "_wei",
          "type": "uint256"
        }
      ],
      "name": "takeBox",
      "outputs": [
        {
          "name": "",
          "type": "bool"
        }
      ],
      "payable": false,
      "stateMutability": "nonpayable",
      "type": "function"
    },
    {
      "constant": true,
      "inputs": [
        {
          "name": "_id",
          "type": "uint256"
        }
      ],
      "name": "getABoxInfo",
      "outputs": [
        {
          "name": "",
          "type": "address"
        },
        {
          "name": "",
          "type": "uint256"
        }
      ],
      "payable": false,
      "stateMutability": "view",
      "type": "function"
    }
  ],
  "bytecode": "0x608060405260006008553480156200001657600080fd5b50604051602080620013598339810180604052620000389190810190620001ab565b600073ffffffffffffffffffffffffffffffffffffffff168173ffffffffffffffffffffffffffffffffffffffff16141515156200007557600080fd5b80600a60006101000a81548173ffffffffffffffffffffffffffffffffffffffff021916908373ffffffffffffffffffffffffffffffffffffffff160217905550336000806101000a81548173ffffffffffffffffffffffffffffffffffffffff021916908373ffffffffffffffffffffffffffffffffffffffff160217905550662386f26fc10000600360006005811015156200010f57fe5b018190555067016345785d8a0000600360016005811015156200012e57fe5b0181905550670de0b6b3a7640000600360026005811015156200014d57fe5b0181905550678ac7230489e800006003806005811015156200016b57fe5b0181905550662386f26fc10000600360046005811015156200018957fe5b0181905550506200020b565b6000620001a38251620001f7565b905092915050565b600060208284031215620001be57600080fd5b6000620001ce8482850162000195565b91505092915050565b600073ffffffffffffffffffffffffffffffffffffffff82169050919050565b60006200020482620001d7565b9050919050565b61113e806200021b6000396000f3006080604052600436106100c5576000357c0100000000000000000000000000000000000000000000000000000000900463ffffffff1680630478ef4b1461010657806308328e8814610131578063189c57841461016e578063419a19381461019957806346d23fec146101d65780635ed4d28414610213578063785d976b1461022f5780637c24373f1461026c5780638da5cb5b146102aa5780639682a4b1146102d5578063986fc952146102f1578063ce98ee3a1461032f578063fc0c546a1461035a575b610104336040805190810160405280600281526020017f6e6f000000000000000000000000000000000000000000000000000000000000815250610385565b005b34801561011257600080fd5b5061011b61062f565b6040516101289190610f0c565b60405180910390f35b34801561013d57600080fd5b5061015860048036036101539190810190610d67565b61063a565b6040516101659190610ed6565b60405180910390f35b34801561017a57600080fd5b506101836106b2565b6040516101909190610eb4565b60405180910390f35b3480156101a557600080fd5b506101c060048036036101bb9190810190610c81565b61070a565b6040516101cd9190610ed6565b60405180910390f35b3480156101e257600080fd5b506101fd60048036036101f89190810190610d3e565b610890565b60405161020a9190610f0c565b60405180910390f35b61022d60048036036102289190810190610cf9565b6108b3565b005b34801561023b57600080fd5b5061025660048036036102519190810190610d3e565b61091e565b6040516102639190610f0c565b60405180910390f35b34801561027857600080fd5b50610293600480360361028e9190810190610d3e565b610993565b6040516102a1929190610e8b565b60405180910390f35b3480156102b657600080fd5b506102bf6109e6565b6040516102cc9190610e70565b60405180910390f35b6102ef60048036036102ea9190810190610c2d565b610385565b005b3480156102fd57600080fd5b5061031860048036036103139190810190610d3e565b610a0b565b604051610326929190610e8b565b60405180910390f35b34801561033b57600080fd5b50610344610a79565b6040516103519190610ed6565b60405180910390f35b34801561036657600080fd5b5061036f610aca565b60405161037c9190610ef1565b60405180910390f35b600061038f610b1f565b600080600a60149054906101000a900460ff161515156103ae57600080fd5b600360006005811015156103be57fe5b01543414806103dd5750600360016005811015156103d857fe5b015434145b806103f85750600360026005811015156103f357fe5b015434145b80610412575060038060058110151561040d57fe5b015434145b8061042d57506003600460058110151561042857fe5b015434145b151561043857600080fd5b34935060408051908101604052808773ffffffffffffffffffffffffffffffffffffffff168152602001858152509250600b839080600181540180825580915050906001820390600052602060002090600202016000909192909190915060008201518160000160006101000a81548173ffffffffffffffffffffffffffffffffffffffff021916908373ffffffffffffffffffffffffffffffffffffffff1602179055506020820151816001015550509150610505662386f26fc1000085610af090919063ffffffff16565b9050600a60009054906101000a900473ffffffffffffffffffffffffffffffffffffffff1673ffffffffffffffffffffffffffffffffffffffff1663a5bb916287836040518363ffffffff167c0100000000000000000000000000000000000000000000000000000000028152600401610580929190610e8b565b602060405180830381600087803b15801561059a57600080fd5b505af11580156105ae573d6000803e3d6000fd5b505050506040513d601f19601f820116820180604052506105d29190810190610cd0565b503373ffffffffffffffffffffffffffffffffffffffff167f3621a942dbac69ae2e9cadeb3c07ba17be07ec0bca70024082c96aa67bbe26fd8387348560405161061f9493929190610f27565b60405180910390a2505050505050565b662386f26fc1000081565b60003373ffffffffffffffffffffffffffffffffffffffff166000809054906101000a900473ffffffffffffffffffffffffffffffffffffffff1673ffffffffffffffffffffffffffffffffffffffff1614151561069757600080fd5b816003846005811015156106a757fe5b018190555092915050565b6060600980548060200260200160405190810160405280929190818152602001828054801561070057602002820191906000526020600020905b8154815260200190600101908083116106ec575b5050505050905090565b60008060008060003373ffffffffffffffffffffffffffffffffffffffff166000809054906101000a900473ffffffffffffffffffffffffffffffffffffffff1673ffffffffffffffffffffffffffffffffffffffff1614151561076d57600080fd5b859350600b8781548110151561077f57fe5b906000526020600020906002020160000160009054906101000a900473ffffffffffffffffffffffffffffffffffffffff169250600b878154811015156107c257fe5b90600052602060002090600202016001015491506107ea600983610b0690919063ffffffff16565b90508773ffffffffffffffffffffffffffffffffffffffff166108fc859081150290604051600060405180830381858888f19350505050158015610832573d6000803e3d6000fd5b508773ffffffffffffffffffffffffffffffffffffffff167fef911ed5d7872addd8f0e5c4496a308f93dcf708948bfdee0ae77eade5e602c288868460405161087d93929190610f73565b60405180910390a2505050509392505050565b60098181548110151561089f57fe5b906000526020600020016000915090505481565b600a60149054906101000a900460ff161515156108cf57600080fd5b6000341115156108de57600080fd5b61091a3383838080601f016020809104026020016040519081016040528093929190818152602001838380828437820191505050505050610385565b5050565b60003373ffffffffffffffffffffffffffffffffffffffff166000809054906101000a900473ffffffffffffffffffffffffffffffffffffffff1673ffffffffffffffffffffffffffffffffffffffff1614151561097b57600080fd5b60038260058110151561098a57fe5b01549050919050565b600b818154811015156109a257fe5b90600052602060002090600202016000915090508060000160009054906101000a900473ffffffffffffffffffffffffffffffffffffffff16908060010154905082565b6000809054906101000a900473ffffffffffffffffffffffffffffffffffffffff1681565b600080600b83815481101515610a1d57fe5b906000526020600020906002020160000160009054906101000a900473ffffffffffffffffffffffffffffffffffffffff16600b84815481101515610a5e57fe5b90600052602060002090600202016001015491509150915091565b60003373ffffffffffffffffffffffffffffffffffffffff166108fc60019081150290604051600060405180830381858888f19350505050158015610ac2573d6000803e3d6000fd5b506001905090565b600a60009054906101000a900473ffffffffffffffffffffffffffffffffffffffff1681565b60008183811515610afd57fe5b04905092915050565b6000828211151515610b1457fe5b818303905092915050565b6040805190810160405280600073ffffffffffffffffffffffffffffffffffffffff168152602001600081525090565b6000610b5b8235611069565b905092915050565b6000610b6f8251611089565b905092915050565b60008083601f8401121515610b8b57600080fd5b8235905067ffffffffffffffff811115610ba457600080fd5b602083019150836001820283011115610bbc57600080fd5b9250929050565b600082601f8301121515610bd657600080fd5b8135610be9610be482610fd7565b610faa565b91508082526020830160208301858383011115610c0557600080fd5b610c108382846110b1565b50505092915050565b6000610c258235611095565b905092915050565b60008060408385031215610c4057600080fd5b6000610c4e85828601610b4f565b925050602083013567ffffffffffffffff811115610c6b57600080fd5b610c7785828601610bc3565b9150509250929050565b600080600060608486031215610c9657600080fd5b6000610ca486828701610b4f565b9350506020610cb586828701610c19565b9250506040610cc686828701610c19565b9150509250925092565b600060208284031215610ce257600080fd5b6000610cf084828501610b63565b91505092915050565b60008060208385031215610d0c57600080fd5b600083013567ffffffffffffffff811115610d2657600080fd5b610d3285828601610b77565b92509250509250929050565b600060208284031215610d5057600080fd5b6000610d5e84828501610c19565b91505092915050565b60008060408385031215610d7a57600080fd5b6000610d8885828601610c19565b9250506020610d9985828601610c19565b9150509250929050565b610dac81611033565b82525050565b6000610dbd82611010565b808452602084019350610dcf83611003565b60005b82811015610e0157610de5868351610e61565b610dee82611026565b9150602086019550600181019050610dd2565b50849250505092915050565b610e1681611053565b82525050565b610e258161109f565b82525050565b6000610e368261101b565b808452610e4a8160208601602086016110c0565b610e53816110f3565b602085010191505092915050565b610e6a8161105f565b82525050565b6000602082019050610e856000830184610da3565b92915050565b6000604082019050610ea06000830185610da3565b610ead6020830184610e61565b9392505050565b60006020820190508181036000830152610ece8184610db2565b905092915050565b6000602082019050610eeb6000830184610e0d565b92915050565b6000602082019050610f066000830184610e1c565b92915050565b6000602082019050610f216000830184610e61565b92915050565b6000608082019050610f3c6000830187610e61565b8181036020830152610f4e8186610e2b565b9050610f5d6040830185610e61565b610f6a6060830184610e61565b95945050505050565b6000606082019050610f886000830186610e61565b610f956020830185610e61565b610fa26040830184610e61565b949350505050565b6000604051905081810181811067ffffffffffffffff82111715610fcd57600080fd5b8060405250919050565b600067ffffffffffffffff821115610fee57600080fd5b601f19601f8301169050602081019050919050565b6000602082019050919050565b600081519050919050565b600081519050919050565b6000602082019050919050565b600073ffffffffffffffffffffffffffffffffffffffff82169050919050565b60008115159050919050565b6000819050919050565b600073ffffffffffffffffffffffffffffffffffffffff82169050919050565b60008115159050919050565b6000819050919050565b60006110aa82611033565b9050919050565b82818337600083830152505050565b60005b838110156110de5780820151818401526020810190506110c3565b838111156110ed576000848401525b50505050565b6000601f19601f83011690509190505600a265627a7a72305820d0e6f5fd507a6af5faf394f303528adf28b34a63a5240357c46e5c7b4d2478896c6578706572696d656e74616cf50037",
  "source": "\r\n\r\npragma solidity ^0.4.21;\r\npragma experimental ABIEncoderV2;\r\n\r\nimport './AngelToken.sol';\r\nimport 'zeppelin-solidity/contracts/math/SafeMath.sol';\r\n\r\ncontract SendABox {\r\n    using SafeMath for uint256;\r\n    address public owner;\r\n    address developer;\r\n    address government;\r\n    uint[5] canGiveValue;\r\n    uint public constant SZABO_PER_WEI = 10000000000000000; //  0^16 개ㅑ 0.01 ether = 1 token \r\n\r\n    uint256 box_idx = 0;\r\n    uint[] public boxlist ;\r\n    \r\n    AngelToken public token;\r\n\r\n    bool private closed;\r\n    \r\n    event ev_GiveABoxFromDonator(uint256 _box_idx , address indexed _sender , string _message , uint _value , uint _token);\r\n\r\n    event ev_GetABox(address indexed _getter , uint256 _boxid , uint256 _value , uint256 _takevalue);\r\n    \r\n    struct ABoxInfo {\r\n     //   uint    AboxNum;\r\n        address donator;\r\n        uint    value;\r\n        //string  message;\r\n    }\r\n\r\n    ABoxInfo[] public ABoxList;\r\n    //mapping (uint => ABoxInfo ) boxtest;\r\n\r\n    function SendABox(AngelToken _token) public {\r\n        require(_token != address(0));\r\n        token = _token;\r\n        //require(_token.owner != msg.sender);\r\n        owner = msg.sender;\r\n        canGiveValue[0] = 10000000000000000; // 0.01 ether 0이 16개 \r\n        canGiveValue[1] = 100000000000000000; // 0.1 ether 0이 17개 \r\n        canGiveValue[2] = 1000000000000000000; // 1 ether 0이 18개 \r\n        canGiveValue[3] = 10000000000000000000; // 10 ether 0이 19개 \r\n        canGiveValue[4] = 10000000000000000; // 0.01 ether 0이 16개 \r\n   \r\n    }\r\n\r\n    modifier onlyOwner() {\r\n        require(owner == msg.sender);\r\n        _;\r\n    }\r\n\r\n    function setcanGiveValue(uint _num , uint _value) public onlyOwner returns (bool) {\r\n        canGiveValue[_num] = _value;\r\n    }\r\n\r\n     function getcanGiveValue(uint _num) public onlyOwner returns (uint) {\r\n        return canGiveValue[_num];\r\n    }\r\n/*\r\n    function getABoxInfo(uint num) public view returns (uint , address ) {\r\n        return (boxtest[num].value , boxtest[num].donator);\r\n    }\r\n\r\n    \r\n    function getABoxInfoStruct(uint num) public view returns (uint , address ) {\r\n\r\n        ABoxInfo memory aaa = boxtest[num];\r\n        return (aaa.value , aaa.donator );\r\n    }\r\n*/\r\n    function getboxlistarray() public returns (uint[]) {\r\n        return boxlist;\r\n    }\r\n    \r\n\r\n    function GetAlBox() public returns (bool) {\r\n        msg.sender.transfer(1);\r\n        //msg.sender.transfer(address(this).balance);\r\n        return true;\r\n    }\r\n\r\n    function() external payable {\r\n        \r\n        /*\r\n        boxnum += 1;\r\n        var boxbox = boxtest[boxnum];\r\n       // boxbox.AboxNum = boxnum;\r\n        boxbox.value = msg.value;\r\n        boxbox.message = \"take this\";\r\n       \r\n        boxbox.donator = msg.sender;\r\n\r\n        boxlist.push(boxnum);\r\n\r\n\r\n        emit GiveABoxSender(msg.sender , msg.value , 5);\r\n        */\r\n        //token.tokenadd(msg.sender , msg.value);\r\n        //balances[msg.sender] = msg.value;\r\n        //token.transfer(msg.sender, emmasToTransfer);\r\n\r\n        \r\n        giveABox(msg.sender , \"no\");\r\n    }\r\n\r\n    function giveABoxForMessage(string message) external payable {\r\n        require(!closed);\r\n        require(msg.value > 0);\r\n\r\n        giveABox(msg.sender , message);\r\n    }\r\n\r\n    function giveABox(address _from , string message) payable {\r\n        \r\n        require(!closed);\r\n        require(msg.value == canGiveValue[0] || msg.value == canGiveValue[1] || msg.value == canGiveValue[2] || msg.value == canGiveValue[3] || msg.value == canGiveValue[4]); \r\n          \r\n        uint256 amount = msg.value;\r\n        \r\n        ABoxInfo memory boxinfo = ABoxInfo(_from , amount);\r\n        \r\n        var _id = ABoxList.push(boxinfo);\r\n\r\n        uint256 tokencnt = amount.div(SZABO_PER_WEI);\r\n       \r\n        token.tokenadd(_from , tokencnt);\r\n\r\n        emit ev_GiveABoxFromDonator(_id , msg.sender , message , msg.value , tokencnt);\r\n        \r\n    }\r\n\r\n    function takeBox(address _getaddress , uint256 _boxid , uint256 _wei) public onlyOwner returns (bool) {\r\n\r\n        uint256 amount = _wei;\r\n\r\n        address donator = ABoxList[_boxid].donator;\r\n        uint256 boxvalue = ABoxList[_boxid].value;\r\n        \r\n        uint256 takevalue = boxvalue.sub(9);\r\n                \r\n        _getaddress.transfer(amount);\r\n\r\n        emit ev_GetABox(_getaddress , _boxid , amount , takevalue);\r\n       \r\n    }\r\n\r\n    function getABoxInfo(uint256 _id) public view returns (address , uint256) {\r\n\r\n        return (ABoxList[_id].donator , ABoxList[_id].value);\r\n    }\r\n}",
  "sourcePath": "G:\\solidity\\AngelToken_git\\TruffleReactETHBox\\contracts\\SendABox.sol",
  "compiler": {
    "name": "solc",
    "version": "0.4.24+commit.e67f0147.Emscripten.clang"
  },
  "schemaVersion": "2.0.0",
  "updatedAt": "2018-06-25T05:29:23.223Z"
}